{
  "address": "0x1E39B115188fE8eb651c4E90CA58c30691c8EdAe",
  "abi": [
    {
      "inputs": [
        {
          "internalType": "address",
          "name": "exampleExternalContractAddress",
          "type": "address"
        }
      ],
      "stateMutability": "nonpayable",
      "type": "constructor"
    },
    {
      "anonymous": false,
      "inputs": [
        {
          "indexed": false,
          "internalType": "address",
          "name": "",
          "type": "address"
        },
        {
          "indexed": false,
          "internalType": "uint256",
          "name": "",
          "type": "uint256"
        }
      ],
      "name": "Stake",
      "type": "event"
    },
    {
      "inputs": [],
      "name": "exampleExternalContract",
      "outputs": [
        {
          "internalType": "contract ExampleExternalContract",
          "name": "",
          "type": "address"
        }
      ],
      "stateMutability": "view",
      "type": "function"
    },
    {
      "inputs": [],
      "name": "execute",
      "outputs": [],
      "stateMutability": "nonpayable",
      "type": "function"
    },
    {
      "inputs": [],
      "name": "stake",
      "outputs": [],
      "stateMutability": "payable",
      "type": "function"
    },
    {
      "inputs": [],
      "name": "timeLeft",
      "outputs": [
        {
          "internalType": "uint256",
          "name": "",
          "type": "uint256"
        }
      ],
      "stateMutability": "view",
      "type": "function"
    },
    {
      "inputs": [],
      "name": "withdraw",
      "outputs": [],
      "stateMutability": "nonpayable",
      "type": "function"
    },
    {
      "stateMutability": "payable",
      "type": "receive"
    }
  ],
  "transactionHash": "0x0a2536727b8e6c1ba9ecb04f680f3d64041c6741c667e5a921a7430407a68bff",
  "args": [
    "0x01c6c1dFEc665e5051BDEf5918f2a7CF7aF85fA7"
  ],
  "numDeployments": 1,
  "solcInputHash": "ce34ec097e298cbcb421b7a71e3c160f",
  "bytecode": "0x60a06040526002805460ff1916905534801561001a57600080fd5b506040516105ca3803806105ca83398101604081905261003991610062565b600080546001600160a01b0319166001600160a01b039290921691909117905542608052610090565b600060208284031215610073578081fd5b81516001600160a01b0381168114610089578182fd5b9392505050565b6080516105116100b9600039600081816101eb01528181610225015261037601526105116000f3fe60806040526004361061004e5760003560e01c80631300a6d1146100625780633a4b66f11461008a5780633ccfd60b1461009257806361461954146100a75780639f75f227146100bc57600080fd5b3661005d5761005b6100f4565b005b600080fd5b34801561006e57600080fd5b506100776101e0565b6040519081526020015b60405180910390f35b61005b6100f4565b34801561009e57600080fd5b5061005b610258565b3480156100b357600080fd5b5061005b610374565b3480156100c857600080fd5b506000546100dc906001600160a01b031681565b6040516001600160a01b039091168152602001610081565b60008054906101000a90046001600160a01b03166001600160a01b0316639d9a7fe96040518163ffffffff1660e01b815260040160206040518083038186803b15801561014057600080fd5b505afa158015610154573d6000803e3d6000fd5b505050506040513d601f19601f82011682018060405250810190610178919061046f565b1561018257600080fd5b33600090815260016020526040812080543492906101a1908490610496565b9091555050604080513381523460208201527febedb8b3c678666e7f36970bc8f57abf6d8fa2e828c0da91ea5b75bf68ed101a910160405180910390a1565b600061020f6203f4807f0000000000000000000000000000000000000000000000000000000000000000610496565b421061021b5750600090565b426102496203f4807f0000000000000000000000000000000000000000000000000000000000000000610496565b61025391906104ae565b905090565b60008054906101000a90046001600160a01b03166001600160a01b0316639d9a7fe96040518163ffffffff1660e01b815260040160206040518083038186803b1580156102a457600080fd5b505afa1580156102b8573d6000803e3d6000fd5b505050506040513d601f19601f820116820180604052508101906102dc919061046f565b156102e657600080fd5b60025460ff1661032f5760405162461bcd60e51b815260206004820152600f60248201526e43616e6e6f7420576974686472617760881b60448201526064015b60405180910390fd5b33600081815260016020526040808220805490839055905190929183156108fc02918491818181858888f19350505050158015610370573d6000803e3d6000fd5b5050565b7f00000000000000000000000000000000000000000000000000000000000000006103a26203f480426104ae565b116103e85760405162461bcd60e51b8152602060048201526016602482015275139bdd08195b9bdd59da081d1a5b59481c185cdcd95960521b6044820152606401610326565b670de0b6b3a764000047106104605760008054906101000a90046001600160a01b03166001600160a01b031663522e1177476040518263ffffffff1660e01b81526004016000604051808303818588803b15801561044557600080fd5b505af1158015610459573d6000803e3d6000fd5b5050505050565b6002805460ff19166001179055565b600060208284031215610480578081fd5b8151801515811461048f578182fd5b9392505050565b600082198211156104a9576104a96104c5565b500190565b6000828210156104c0576104c06104c5565b500390565b634e487b7160e01b600052601160045260246000fdfea264697066735822122048c74d25ff2cc4e0cc1f93986311a67395da0f4990e48fe81bcbc94e52d04e8b64736f6c63430008040033",
  "devdoc": {
    "kind": "dev",
    "methods": {},
    "version": 1
  },
  "userdoc": {
    "kind": "user",
    "methods": {},
    "version": 1
  },
  "storageLayout": {
    "storage": [
      {
        "astId": 25,
        "contract": "contracts/Staker.sol:Staker",
        "label": "exampleExternalContract",
        "offset": 0,
        "slot": "0",
        "type": "t_contract(ExampleExternalContract)12"
      },
      {
        "astId": 29,
        "contract": "contracts/Staker.sol:Staker",
        "label": "addressToValue",
        "offset": 0,
        "slot": "1",
        "type": "t_mapping(t_address,t_uint256)"
      },
      {
        "astId": 40,
        "contract": "contracts/Staker.sol:Staker",
        "label": "openForWithdraw",
        "offset": 0,
        "slot": "2",
        "type": "t_bool"
      }
    ],
    "types": {
      "t_address": {
        "encoding": "inplace",
        "label": "address",
        "numberOfBytes": "20"
      },
      "t_bool": {
        "encoding": "inplace",
        "label": "bool",
        "numberOfBytes": "1"
      },
      "t_contract(ExampleExternalContract)12": {
        "encoding": "inplace",
        "label": "contract ExampleExternalContract",
        "numberOfBytes": "20"
      },
      "t_mapping(t_address,t_uint256)": {
        "encoding": "mapping",
        "key": "t_address",
        "label": "mapping(address => uint256)",
        "numberOfBytes": "32",
        "value": "t_uint256"
      },
      "t_uint256": {
        "encoding": "inplace",
        "label": "uint256",
        "numberOfBytes": "32"
      }
    }
  }
}